:020000040800F2
:100000008006002081010008510C0008050C000842
:1000100000000000000000000000000000000000E0
:10002000000000000000000000000000550C000867
:100030000000000000000000530C0008570C0008EE
:1000400093010008000000009301000893010008DC
:100050009301000893010008930100089301000830
:1000600000000000930100089301000893010008BC
:1000700093010008930100089301000800000000AC
:100080009301000800000000000000009301000838
:10009000000000009301000893010008930100088C
:1000A00093010008930100089301000893010008E0
:1000B00093010008000000000000000000000000A4
:1000C00000F002F800F04CF812A030C808382418EC
:1000D0002D18AC4201D100F043F80FCCA246AB463C
:1000E0000CA730CF2D1B083F3F197C427F1E544484
:1000F0002D090426F441641EAC4201D300F030F80F
:100100000126334200D0FB1A3343984754465D46DC
:10011000DFE700007410000094100000103A02D3D2
:1001200078C878C1FAD8520701D330C830C101D598
:1001300004680C6070470000704700000023002432
:1001400000250026103A01D378C1FBD8520700D30E
:1001500030C100D50B6070471FB51FBD10B510BD75
:1001600000F04DF81146FFF7F7FF00F0B3FE00F086
:1001700065F803B4FFF7F2FF03BC00F06BF8000072
:100180000748804707480047FEE7FEE7FEE7FEE72F
:10019000FEE7FEE704480549054A064B70470000A4
:1001A0005F0C0008C10000088000002080060020CD
:1001B000800200208002002001E004C0091F042901
:1001C000FBD28B0701D50280801CC90700D00270CA
:1001D000704700290BD0C30702D00270401C491E93
:1001E000022904D3830702D50280801C891EE3E71D
:1001F0000022EEE70022DFE7704770477047754640
:1002000000F024F8AE46050069465346C008C00019
:10021000854618B020B5FFF7BDFF60BCB646002686
:100220000027C0C5C0C5C0C5C0C5C0C5C0C5C0C504
:10023000C0C5403D490849008D46704710B5044689
:10024000C046C0462046FFF794FF10BD00487047E7
:100250001800002001491820ABBEFEE7260002006E
:1002600070470000B0B5044600F0E4F80546601C95
:1002700002D091480078041900F0DCF8401BA0423D
:10028000FAD3B0BDF0B58AB009910968002900D150
:10029000BCE006465E48864201D0052000E003200F
:1002A0000090002707973C46089710E00A432A6011
:1002B0007F1C099801680846F840089A083208929D
:1002C000079A121D0792A41C002800D19EE0012568
:1002D0000295BD402940EBD003970191324603239C
:1002E0001846A040C1432746099844682046184054
:1002F000461E012E06910594049710D893680B4072
:100300000999CE68BE401E439660E306DB0F039F4B
:10031000BB405668AE431E435660164607E00328AE
:100320001646039F03D11846059A049C1DE0F36806
:1003300006990B40099A9568049CA5401D43F560F9
:100340000228059A11D11C20079908400F228240EB
:10035000FB089B00F3181D6A954309990A698240BE
:100360002A431A624A6803201040A0403368069965
:100370000B40034333609003800F99D003203A462B
:10038000824324488018026E05231B079E420AD030
:10039000224B9E4205D0224B9E42009904D102215D
:1003A00002E0029900E000211823089D2B400F2550
:1003B0009D40AA436030994011430160154D2A6861
:1003C00009984068C30207D501990A432A606A6800
:1003D000830207D48A4306E001998A432A606A6847
:1003E0008302F7D50A436A600B4D6A68830305D51B
:1003F0000A436A602A68C00306D557E78A436A60E1
:100400002A68C00300D551E78A4350E70AB0F0BD1F
:10041000000C0050001802408018024000040050F8
:1004200000080050002A02D018228150704728226C
:1004300081507047054800687047C0461E480078E4
:1004400002490A68101808607047C046780000200A
:1004500010B501242002CF490A6802430A60032034
:1004600000F00AF8002801D0204610BD00F026F860
:100470000024204610BDC04670B50F4E31780124CF
:10048000002916D005467D20C00000F061FD014620
:10049000C648006800F05CFD00F09AFB032D08D808
:1004A000002806D10024E0432946224600F01CF82B
:1004B0007560204670BDC0460000002082B009482B
:1004C0004168012211434160416811400191019945
:1004D000110702680A430260006808400090009813
:1004E00002B070473C100240002805D403220346A6
:1004F00093430A4A9A1803E00C220240064BD21892
:100500008007C00E8901C9B28140FF238340106873
:10051000984308431060704714ED00E000E400E0E9
:10052000F0B581B0032569021E4E3246143A1368B5
:100530008B4303431360012461020022884204D1EB
:100540009A4801683068400502D4104601B0F0BDF9
:100550000092A70206204843134900F0F9FC201A34
:10056000022816D03168394217D0012811D03168DD
:10057000394212D000280CD0316839420DD0001D0C
:10058000032806D031683942EAD1009A104601B0FA
:10059000F0BD2A46104601B0F0BD009A104601B0E9
:1005A000F0BDC0461470004040420F00F0B583B06B
:1005B0000D46012100281BD001910290754800686A
:1005C00007242040A84216D272490868A043284355
:1005D0000860714EFFF72EFF07466E480068204006
:1005E000A84208D0FFF726FFC01BB042F5D903216F
:1005F000084603B0F0BD029E30688107674B0CD5FA
:10060000410703D521031A680A431A600F21090222
:100610001A688A43B16811431960C0071BD15D484D
:1006200000682040A8422CD95A490868A0432843B2
:100630000860594FFFF7FEFE064656480068204006
:10064000A8421ED0FFF7F6FE801BB842F5D9032161
:10065000084603B0F0BD0298406803285DD88100C9
:1006600001A251588F46C046790600081F070008AE
:1006700029070008330700081946083909684905A1
:1006800059E0029A10784007444B05D520031968B9
:100690008143D0680843186018688006400F22D054
:1006A0001A6838210A403E48082A23D01A680A40AE
:1006B000102A5ED1596803220A40032A00D0394823
:1006C00059684906490F491C00F042FC3349496802
:1006D0004904490E484331494968490F491C00F013
:1006E00037FC2E4B06E01846083800688004410F9E
:1006F0002C48C840196889093C220A402A4989586F
:100700001F220A40D0402949086029480068FFF7A5
:10071000B3FE0146084603B0F0BD596D0AE0194624
:1007200008390968890306E019460839096889010A
:1007300001E0996D8907019900D459E71968A1432F
:1007400001431960144FFFF775FE06461348006811
:100750003821014002984068C000814200D15EE724
:10076000FFF768FE801BB842F0D90321084603B0AA
:10077000F0BD18680840202802D10120C003B9E765
:1007800018680840182801D00020B3E77D20000237
:10079000B0E7C04600200240881300000810024065
:1007A00000127A000024F40048110008080000201C
:1007B00004000020F0B587B00125002800D1ECE14D
:1007C000049505900078C007F94F2AD0B868F968F9
:1007D00003252A468A4338210140102048408218C8
:1007E00050425041082914D0002812D1059842687F
:1007F000012001048A4208D005231B049A4200D03C
:10080000DAE082043B6813433B603A680A433A608B
:10081000DBE03868800304D505984068002800D1E3
:1008200073E105980078800723D4059800780007C5
:100830000CD5B86838210140182971D1386E80076D
:1008400004D505988069002800D15EE1059A1078EA
:10085000400700D42EE1B86838210140202974D126
:10086000F86D800700D425E19068002800D021E1D0
:100870004BE1B9683820084010214140FA6803254F
:100880002A4002235340CA1851425141002820D027
:1008900000291ED13868059AD168002900D1A2E04C
:1008A0000721C9028843116901433960012001020F
:1008B0003A680A433A608402FFF7BCFD064638688E
:1008C000204200D0A1E0FFF7B5FD801B0228F6D939
:1008D00063E139684905059B03D5D968002900D132
:1008E00013E17F2109027A688A4359690902114399
:1008F000796000280DD10720C0023968814318694A
:100900000843386038688004400FAA49C140AA48AB
:100910000160AA480068FFF7AFFD002885D0F4E029
:10092000386E05998969002979D001210843386614
:10093000FFF780FD0646386E800787D4FFF77AFD03
:10094000801B03250228F6D927E101200390010727
:10095000F86B0840029006D1F86B0843F863F86B17
:10096000084006900698019195480068C00513D488
:10097000039804029249086820430860FFF75AFD73
:1009800006468F480068204206D1FFF753FD801BC2
:1009900003250228F5D900E105988068894C0128D3
:1009A00005D005285AD1F86D04210143F965F86D89
:1009B00003990843F8655BE03B688B433B60810427
:1009C0003B688B433B60002A3AD04404FFF732FD7A
:1009D00006463868204200D023E7FFF72BFD801B36
:1009E0006428F6D9D9E001210A02904338608C02CC
:1009F000FFF720FD06463868204200D115E7FFF7D3
:100A000019FD801B0228F6D9C7E07F200002796813
:100A100081430598406900020843786005E7012199
:100A200088433866FFF706FD0646386E800700D417
:100A30000CE7FFF7FFFC801B03250228F5D9ACE08B
:100A40004404FFF7F7FC06463868204200D1E8E688
:100A5000FFF7F0FC801B6428F6D99EE0F96D039A3D
:100A60009143F965F96D04229143F96500280CD092
:100A7000FFF7E0FC0646F86D800713D4FFF7DAFCB9
:100A8000801B0325A042F6D987E0FFF7D3FC06467A
:100A9000F86D800706D5FFF7CDFC801B0325A0422B
:100AA000F6D97AE002980028059A03D1F86B0199EB
:100AB0008843F863D469002C76D0B86838210140A7
:100AC000102926D1012C20D0F86803210140059B74
:100AD0001A6A914219D1702101405A6A914214D187
:100AE0007F21090201409A6A120291420DD11F2111
:100AF00049040140DA6A9142049D4ED10721490719
:100B00000840196B884248D14EE0049D284607B042
:100B1000F0BD012529063868049188433860FFF745
:100B200089FC0646022C0BD103956C0638682042DE
:100B300011D0FFF77FFC801B03250228F6D92CE09B
:100B40006C06386820422BD0FFF774FC801B03250D
:100B50000228F6D921E0F8681C490140059E20369C
:100B60006DCE084310431902014329433143F96014
:100B7000386804990843386003980007F96801430E
:100B8000F960FFF757FC0646386820420CD1FFF7A2
:100B900051FC801B03250228F6D9284607B0F0BD7A
:100BA000F86809490140F9600025284607B0F0BD02
:100BB000001002400024F40008000020040000207F
:100BC0000070004088130000FCFFFEEF8C80C11F06
:100BD000401E010E01D0012070470749074A5060AE
:100BE000074803680B40032189075918016000205A
:100BF0009060072111607047FFFFFF0010E000E0E8
:100C000020ED00E0FEE70000F0B587B00024069478
:100C10000D480168012739430160006838400190A0
:100C2000019805200507094E284631462246FFF760
:100C3000F9FB0594022004900397029602A9284626
:100C4000FFF720FB07B0F0BD341002403809000068
:100C5000FEE77047704780B5FFF7F0FB80BD704737
:100C6000F0B581B00524270701200090010200257E
:100C700038462A46FFF7D6FB2026384631462A4614
:100C8000FFF7D0FB8F2000F047F838463146009A36
:100C9000FFF7C8FB2046294600F0D8F82046294631
:100CA00000F0D4F82046294600F0D0F82046294626
:100CB00000F0CCF82046294600F0C8F82046294626
:100CC00000F0C4F82046294600F0C0F82046294626
:100CD00000F0BCF82046294600F0B8F82046294626
:100CE00000F0B4F82046294600F0B0F82046294626
:100CF00000F0ACF82046294600F0A8F82046294626
:100D000000F0A4F82046294600F0A0F82046294625
:100D100000F09CF801B0F0BDF0B585B00646039038
:100D20000520040708250027204629463A46FFF7F4
:100D300079FB0120324602400646049010210291C0
:100D40002046FFF76FFB204629463246FFF76AFB35
:100D5000204629463A463E460197FFF763FB039833
:100D60008007C20F20460299FFF75CFB2046294608
:100D7000049F3A46FFF756FB204629463246FFF7C6
:100D800051FB03984007C20F2046029E3146FFF7F1
:100D900049FB204629463A46FFF744FB20462946B0
:100DA000019F3A46FFF73EFB03980007C20F20461B
:100DB0003146FFF737FB20462946049AFFF732FBFE
:100DC000204629463E463A46FFF72CFB039FF8068D
:100DD000C20F20460299FFF725FB20462946049AB8
:100DE000FFF720FB204629463246FFF71BFBB806DB
:100DF000C20F2046029E3146FFF714FB20462946CB
:100E0000049AFFF70FFB20462946019AFFF70AFBD9
:100E10007806C20F20463146FFF704FB20462946DC
:100E2000049A1746FFF7FEFA20462946019AFFF773
:100E3000F9FA0398C20920463146FFF7F3FA204633
:100E400029463A46FFF7EEFA05B0F0BDF0B583B09B
:100E500002910190052004072025002720462946FD
:100E60003A460097FFF7DEFA4420FFF755FF0126C8
:100E7000204629463246FFF7D5FA204629463A460B
:100E8000FFF7D0FA019841000191C0200843C0B299
:100E9000FFF742FF0F20029F3840FFF73DFF20463B
:100EA00029463246FFF7BEFA20462946009AFFF748
:100EB000B9FAC12001990843C0B2FFF72DFF3809E4
:100EC000FFF72AFF204629463246FFF7ABFA03B068
:100ED000F0BD000092B0FFF7BBFA05AD281D302130
:100EE000FFF788F901267002FFF71AFB00240C9423
:100EF00040200A900994300208900220059028466C
:100F0000FFF758FC002803D0EFF3108072B6FEE71D
:100F10000494039402940720019001A82146FFF74E
:100F200045FB002803D0EFF3108072B6FEE7FFF711
:100F30006BFEFFF795FE054C21780020FFF786FF3A
:100F40007D20C000FFF78EF9F6E7C0460C000020B8
:100F500043088B421AD3002203098B4279D3030A38
:100F60008B425ED3030B8B4242D3030C8B4227D3BD
:100F70000902FF2212BA030C8B4202D31212090299
:100F800003D0030B8B4233D31AE0D3E0411A8041E4
:100F9000401C704703460B4371D443088B42F5D382
:100FA000002203098B4254D3030A8B4239D3030B2B
:100FB0008B421DD3030C8B4202D394466EE0090A88
:100FC000C30B8B4201D3CB03C01A5241830B8B421C
:100FD00001D38B03C01A5241430B8B4201D34B0305
:100FE000C01A5241030B8B4201D30B03C01A52416A
:100FF000C30A8B4201D3CB02C01A5241830A8B42EF
:1010000001D38B02C01A5241430A8B4201D34B02D7
:10101000C01A5241030A8B4201D30B02C01A52413B
:10102000CDD2C3098B4201D3CB01C01A52418309EF
:101030008B4201D38B01C01A524143098B4201D329
:101040004B01C01A524103098B4201D30B01C01A54
:101050005241C3088B4201D3CB00C01A52418308CE
:101060008B4201D38B00C01A524143088B4201D3FB
:101070004B00C01A5241411A524110007047CA0F2A
:1010800000D04942031000D34042534000229C4606
:1010900003098B422DD3030A8B4212D38901FC2210
:1010A00012BA030A8B420CD3890192118B4208D3E6
:1010B000890192118B4204D3890137D0921100E04B
:1010C0008909C3098B4201D3CB01C01A524183095C
:1010D0008B4201D38B01C01A524143098B4201D389
:1010E0004B01C01A524103098B4201D30B01C01AB4
:1010F0005241C3088B4201D3CB00C01A524183082E
:101100008B4201D38B00C01A5241D9D243088B4283
:1011100001D34B00C01A5241411A00D2014652413C
:10112000104663465B1000D34042704763465B1035
:1011300000D3404201B50021004201D0C943084616
:10114000C046C04602BD00000000000000000000D4
:10115000000000000000000000000000000000008F
:10116000000000000000000001000000020000007C
:10117000030000000400000006000000070000005B
:101180000800000009000000A8110008000000206D
:10119000180000001C010008C01100081800002001
:1011A000680600003C010008010000000400000087
:1011B0000024F4003F065B4F666D7D077F6F008063
:04000005080000C12E
:00000001FF
